{
  "contractName": "RFT",
  "abi": [
    {
      "inputs": [
        {
          "internalType": "string",
          "name": "_name",
          "type": "string"
        },
        {
          "internalType": "string",
          "name": "_symbol",
          "type": "string"
        },
        {
          "internalType": "address",
          "name": "_nftAddress",
          "type": "address"
        },
        {
          "internalType": "uint256",
          "name": "_nftId",
          "type": "uint256"
        },
        {
          "internalType": "uint256",
          "name": "_icoSharePrice",
          "type": "uint256"
        },
        {
          "internalType": "uint256",
          "name": "_icoShareSupply",
          "type": "uint256"
        },
        {
          "internalType": "address",
          "name": "_daiAddress",
          "type": "address"
        }
      ],
      "stateMutability": "nonpayable",
      "type": "constructor"
    },
    {
      "anonymous": false,
      "inputs": [
        {
          "indexed": true,
          "internalType": "address",
          "name": "owner",
          "type": "address"
        },
        {
          "indexed": true,
          "internalType": "address",
          "name": "spender",
          "type": "address"
        },
        {
          "indexed": false,
          "internalType": "uint256",
          "name": "value",
          "type": "uint256"
        }
      ],
      "name": "Approval",
      "type": "event"
    },
    {
      "anonymous": false,
      "inputs": [
        {
          "indexed": true,
          "internalType": "address",
          "name": "from",
          "type": "address"
        },
        {
          "indexed": true,
          "internalType": "address",
          "name": "to",
          "type": "address"
        },
        {
          "indexed": false,
          "internalType": "uint256",
          "name": "value",
          "type": "uint256"
        }
      ],
      "name": "Transfer",
      "type": "event"
    },
    {
      "inputs": [],
      "name": "admin",
      "outputs": [
        {
          "internalType": "address",
          "name": "",
          "type": "address"
        }
      ],
      "stateMutability": "view",
      "type": "function"
    },
    {
      "inputs": [
        {
          "internalType": "address",
          "name": "owner",
          "type": "address"
        },
        {
          "internalType": "address",
          "name": "spender",
          "type": "address"
        }
      ],
      "name": "allowance",
      "outputs": [
        {
          "internalType": "uint256",
          "name": "",
          "type": "uint256"
        }
      ],
      "stateMutability": "view",
      "type": "function"
    },
    {
      "inputs": [
        {
          "internalType": "address",
          "name": "spender",
          "type": "address"
        },
        {
          "internalType": "uint256",
          "name": "amount",
          "type": "uint256"
        }
      ],
      "name": "approve",
      "outputs": [
        {
          "internalType": "bool",
          "name": "",
          "type": "bool"
        }
      ],
      "stateMutability": "nonpayable",
      "type": "function"
    },
    {
      "inputs": [
        {
          "internalType": "address",
          "name": "account",
          "type": "address"
        }
      ],
      "name": "balanceOf",
      "outputs": [
        {
          "internalType": "uint256",
          "name": "",
          "type": "uint256"
        }
      ],
      "stateMutability": "view",
      "type": "function"
    },
    {
      "inputs": [],
      "name": "dai",
      "outputs": [
        {
          "internalType": "contract IERC20",
          "name": "",
          "type": "address"
        }
      ],
      "stateMutability": "view",
      "type": "function"
    },
    {
      "inputs": [],
      "name": "decimals",
      "outputs": [
        {
          "internalType": "uint8",
          "name": "",
          "type": "uint8"
        }
      ],
      "stateMutability": "view",
      "type": "function"
    },
    {
      "inputs": [
        {
          "internalType": "address",
          "name": "spender",
          "type": "address"
        },
        {
          "internalType": "uint256",
          "name": "subtractedValue",
          "type": "uint256"
        }
      ],
      "name": "decreaseAllowance",
      "outputs": [
        {
          "internalType": "bool",
          "name": "",
          "type": "bool"
        }
      ],
      "stateMutability": "nonpayable",
      "type": "function"
    },
    {
      "inputs": [],
      "name": "icoEnd",
      "outputs": [
        {
          "internalType": "uint256",
          "name": "",
          "type": "uint256"
        }
      ],
      "stateMutability": "view",
      "type": "function"
    },
    {
      "inputs": [],
      "name": "icoSharePrice",
      "outputs": [
        {
          "internalType": "uint256",
          "name": "",
          "type": "uint256"
        }
      ],
      "stateMutability": "view",
      "type": "function"
    },
    {
      "inputs": [],
      "name": "icoShareSupply",
      "outputs": [
        {
          "internalType": "uint256",
          "name": "",
          "type": "uint256"
        }
      ],
      "stateMutability": "view",
      "type": "function"
    },
    {
      "inputs": [
        {
          "internalType": "address",
          "name": "spender",
          "type": "address"
        },
        {
          "internalType": "uint256",
          "name": "addedValue",
          "type": "uint256"
        }
      ],
      "name": "increaseAllowance",
      "outputs": [
        {
          "internalType": "bool",
          "name": "",
          "type": "bool"
        }
      ],
      "stateMutability": "nonpayable",
      "type": "function"
    },
    {
      "inputs": [],
      "name": "name",
      "outputs": [
        {
          "internalType": "string",
          "name": "",
          "type": "string"
        }
      ],
      "stateMutability": "view",
      "type": "function"
    },
    {
      "inputs": [],
      "name": "nft",
      "outputs": [
        {
          "internalType": "contract IERC721",
          "name": "",
          "type": "address"
        }
      ],
      "stateMutability": "view",
      "type": "function"
    },
    {
      "inputs": [],
      "name": "nftId",
      "outputs": [
        {
          "internalType": "uint256",
          "name": "",
          "type": "uint256"
        }
      ],
      "stateMutability": "view",
      "type": "function"
    },
    {
      "inputs": [],
      "name": "symbol",
      "outputs": [
        {
          "internalType": "string",
          "name": "",
          "type": "string"
        }
      ],
      "stateMutability": "view",
      "type": "function"
    },
    {
      "inputs": [],
      "name": "totalSupply",
      "outputs": [
        {
          "internalType": "uint256",
          "name": "",
          "type": "uint256"
        }
      ],
      "stateMutability": "view",
      "type": "function"
    },
    {
      "inputs": [
        {
          "internalType": "address",
          "name": "recipient",
          "type": "address"
        },
        {
          "internalType": "uint256",
          "name": "amount",
          "type": "uint256"
        }
      ],
      "name": "transfer",
      "outputs": [
        {
          "internalType": "bool",
          "name": "",
          "type": "bool"
        }
      ],
      "stateMutability": "nonpayable",
      "type": "function"
    },
    {
      "inputs": [
        {
          "internalType": "address",
          "name": "sender",
          "type": "address"
        },
        {
          "internalType": "address",
          "name": "recipient",
          "type": "address"
        },
        {
          "internalType": "uint256",
          "name": "amount",
          "type": "uint256"
        }
      ],
      "name": "transferFrom",
      "outputs": [
        {
          "internalType": "bool",
          "name": "",
          "type": "bool"
        }
      ],
      "stateMutability": "nonpayable",
      "type": "function"
    },
    {
      "inputs": [],
      "name": "startIco",
      "outputs": [],
      "stateMutability": "nonpayable",
      "type": "function"
    },
    {
      "inputs": [
        {
          "internalType": "uint256",
          "name": "shareAmount",
          "type": "uint256"
        }
      ],
      "name": "buyShare",
      "outputs": [],
      "stateMutability": "nonpayable",
      "type": "function"
    },
    {
      "inputs": [],
      "name": "withdrawIcoProfits",
      "outputs": [],
      "stateMutability": "nonpayable",
      "type": "function"
    }
  ],
  "bytecode": "0x60806040523480156200001157600080fd5b506040516200139f3803806200139f833981810160405260e08110156200003757600080fd5b81019080805160405193929190846401000000008211156200005857600080fd5b9083019060208201858111156200006e57600080fd5b82516401000000008111828201881017156200008957600080fd5b82525081516020918201929091019080838360005b83811015620000b85781810151838201526020016200009e565b50505050905090810190601f168015620000e65780820380516001836020036101000a031916815260200191505b50604052602001805160405193929190846401000000008211156200010a57600080fd5b9083019060208201858111156200012057600080fd5b82516401000000008111828201881017156200013b57600080fd5b82525081516020918201929091019080838360005b838110156200016a57818101518382015260200162000150565b50505050905090810190601f168015620001985780820380516001836020036101000a031916815260200191505b506040908152602082810151918301516060840151608085015160a09095015189519497509195509392909188918891620001d99160039185019062000253565b508051620001ef90600490602084019062000253565b50506005805460ff1916601217905550600993909355600a80546001600160a01b039586166001600160a01b031991821617909155600692909255600755600b80549290931691811691909117909155600c80549091163317905550620002ff9050565b828054600181600116156101000203166002900490600052602060002090601f0160209004810192826200028b5760008555620002d6565b82601f10620002a657805160ff1916838001178555620002d6565b82800160010185558215620002d6579182015b82811115620002d6578251825591602001919060010190620002b9565b50620002e4929150620002e8565b5090565b5b80821115620002e45760008155600101620002e9565b611090806200030f6000396000f3fe608060405234801561001057600080fd5b50600436106101375760003560e01c806370a08231116100b8578063a9ed6e9a1161007c578063a9ed6e9a1461035f578063c6bc51821461037c578063dd62ed3e14610384578063f4b9fa75146103b2578063f851a440146103ba578063ff83ab29146103c257610137565b806370a08231146102d157806389311e6f146102f757806395d89b41146102ff578063a457c2d714610307578063a9059cbb1461033357610137565b806323b872dd116100ff57806323b872dd14610225578063313ce5671461025b578063395093511461027957806347ccca02146102a557806357b6e966146102c957610137565b80630563451a1461013c57806306fdde0314610156578063095ea7b3146101d357806318160ddd146102135780631fed217d1461021b575b600080fd5b6101446103ca565b60408051918252519081900360200190f35b61015e6103d0565b6040805160208082528351818301528351919283929083019185019080838360005b83811015610198578181015183820152602001610180565b50505050905090810190601f1680156101c55780820380516001836020036101000a031916815260200191505b509250505060405180910390f35b6101ff600480360360408110156101e957600080fd5b506001600160a01b038135169060200135610466565b604080519115158252519081900360200190f35b610144610483565b610223610489565b005b6101ff6004803603606081101561023b57600080fd5b506001600160a01b0381358116916020810135909116906040013561066d565b6102636106f4565b6040805160ff9092168252519081900360200190f35b6101ff6004803603604081101561028f57600080fd5b506001600160a01b0381351690602001356106fd565b6102ad61074b565b604080516001600160a01b039092168252519081900360200190f35b61014461075a565b610144600480360360208110156102e757600080fd5b50356001600160a01b0316610760565b61022361077b565b61015e610853565b6101ff6004803603604081101561031d57600080fd5b506001600160a01b0381351690602001356108b4565b6101ff6004803603604081101561034957600080fd5b506001600160a01b03813516906020013561091c565b6102236004803603602081101561037557600080fd5b5035610930565b610144610acc565b6101446004803603604081101561039a57600080fd5b506001600160a01b0381358116916020013516610ad2565b6102ad610afd565b6102ad610b0c565b610144610b1b565b60085481565b60038054604080516020601f600260001961010060018816150201909516949094049384018190048102820181019092528281526060939092909183018282801561045c5780601f106104315761010080835404028352916020019161045c565b820191906000526020600020905b81548152906001019060200180831161043f57829003601f168201915b5050505050905090565b600061047a610473610b21565b8484610b25565b50600192915050565b60025490565b600c546001600160a01b031633146104e2576040805162461bcd60e51b815260206004820152601760248201527627b7363c9020b236b4b71031b0b7103237903a3434b99760491b604482015290519081900360640190fd5b6008544211610538576040805162461bcd60e51b815260206004820152601860248201527f492e432e4f2e204e6f742046696e6973686564207965742e0000000000000000604482015290519081900360640190fd5b600b54604080516370a0823160e01b815230600482015290516000926001600160a01b0316916370a08231916024808301926020929190829003018186803b15801561058357600080fd5b505afa158015610597573d6000803e3d6000fd5b505050506040513d60208110156105ad57600080fd5b50519050801561063d57600b54600c546040805163a9059cbb60e01b81526001600160a01b039283166004820152602481018590529051919092169163a9059cbb9160448083019260209291908290030181600087803b15801561061057600080fd5b505af1158015610624573d6000803e3d6000fd5b505050506040513d602081101561063a57600080fd5b50505b6000610647610483565b600754039050801561066957600c54610669906001600160a01b031682610c11565b5050565b600061067a848484610d01565b6106ea84610686610b21565b6106e585604051806060016040528060288152602001610fc5602891396001600160a01b038a166000908152600160205260408120906106c4610b21565b6001600160a01b031681526020810191909152604001600020549190610e5c565b610b25565b5060019392505050565b60055460ff1690565b600061047a61070a610b21565b846106e5856001600061071b610b21565b6001600160a01b03908116825260208083019390935260409182016000908120918c168152925290205490610ef3565b600a546001600160a01b031681565b60065481565b6001600160a01b031660009081526020819052604090205490565b600c546001600160a01b031633146107d4576040805162461bcd60e51b815260206004820152601760248201527627b7363c9020b236b4b71031b0b7103237903a3434b99760491b604482015290519081900360640190fd5b600a54600954604080516323b872dd60e01b81523360048201523060248201526044810192909252516001600160a01b03909216916323b872dd9160648082019260009290919082900301818387803b15801561083057600080fd5b505af1158015610844573d6000803e3d6000fd5b50505062093a80420160085550565b60048054604080516020601f600260001961010060018816150201909516949094049384018190048102820181019092528281526060939092909183018282801561045c5780601f106104315761010080835404028352916020019161045c565b600061047a6108c1610b21565b846106e58560405180606001604052806025815260200161103660259139600160006108eb610b21565b6001600160a01b03908116825260208083019390935260409182016000908120918d16815292529020549190610e5c565b600061047a610929610b21565b8484610d01565b600060085411610987576040805162461bcd60e51b815260206004820152601760248201527f492e432e4f2e206e6f742073746172746564207965742e000000000000000000604482015290519081900360640190fd5b6008544211156109d4576040805162461bcd60e51b81526020600482015260136024820152722497219727971034b9902334b734b9b432b21760691b604482015290519081900360640190fd5b600754816109e0610483565b011115610a34576040805162461bcd60e51b815260206004820152601760248201527f4e6f7420456e6f75676820536861726573206c6566742e000000000000000000604482015290519081900360640190fd5b600654600b54604080516323b872dd60e01b815233600482015230602482015292840260448401819052905190926001600160a01b03909216916323b872dd9160648083019260209291908290030181600087803b158015610a9557600080fd5b505af1158015610aa9573d6000803e3d6000fd5b505050506040513d6020811015610abf57600080fd5b5061066990503383610c11565b60095481565b6001600160a01b03918216600090815260016020908152604080832093909416825291909152205490565b600b546001600160a01b031681565b600c546001600160a01b031681565b60075481565b3390565b6001600160a01b038316610b6a5760405162461bcd60e51b81526004018080602001828103825260248152602001806110126024913960400191505060405180910390fd5b6001600160a01b038216610baf5760405162461bcd60e51b8152600401808060200182810382526022815260200180610f7d6022913960400191505060405180910390fd5b6001600160a01b03808416600081815260016020908152604080832094871680845294825291829020859055815185815291517f8c5be1e5ebec7d5bd14f71427d1e84f3dd0314c0f7b2291e5b200ac8c7c3b9259281900390910190a3505050565b6001600160a01b038216610c6c576040805162461bcd60e51b815260206004820152601f60248201527f45524332303a206d696e7420746f20746865207a65726f206164647265737300604482015290519081900360640190fd5b610c7860008383610f54565b600254610c859082610ef3565b6002556001600160a01b038216600090815260208190526040902054610cab9082610ef3565b6001600160a01b0383166000818152602081815260408083209490945583518581529351929391927fddf252ad1be2c89b69c2b068fc378daa952ba7f163c4a11628f55a4df523b3ef9281900390910190a35050565b6001600160a01b038316610d465760405162461bcd60e51b8152600401808060200182810382526025815260200180610fed6025913960400191505060405180910390fd5b6001600160a01b038216610d8b5760405162461bcd60e51b8152600401808060200182810382526023815260200180610f5a6023913960400191505060405180910390fd5b610d96838383610f54565b610dd381604051806060016040528060268152602001610f9f602691396001600160a01b0386166000908152602081905260409020549190610e5c565b6001600160a01b038085166000908152602081905260408082209390935590841681522054610e029082610ef3565b6001600160a01b038084166000818152602081815260409182902094909455805185815290519193928716927fddf252ad1be2c89b69c2b068fc378daa952ba7f163c4a11628f55a4df523b3ef92918290030190a3505050565b60008184841115610eeb5760405162461bcd60e51b81526004018080602001828103825283818151815260200191508051906020019080838360005b83811015610eb0578181015183820152602001610e98565b50505050905090810190601f168015610edd5780820380516001836020036101000a031916815260200191505b509250505060405180910390fd5b505050900390565b600082820183811015610f4d576040805162461bcd60e51b815260206004820152601b60248201527f536166654d6174683a206164646974696f6e206f766572666c6f770000000000604482015290519081900360640190fd5b9392505050565b50505056fe45524332303a207472616e7366657220746f20746865207a65726f206164647265737345524332303a20617070726f766520746f20746865207a65726f206164647265737345524332303a207472616e7366657220616d6f756e7420657863656564732062616c616e636545524332303a207472616e7366657220616d6f756e74206578636565647320616c6c6f77616e636545524332303a207472616e736665722066726f6d20746865207a65726f206164647265737345524332303a20617070726f76652066726f6d20746865207a65726f206164647265737345524332303a2064656372656173656420616c6c6f77616e63652062656c6f77207a65726fa2646970667358221220f73836b0d7b1a960e85b1209f86d62462f49f773463b7a6b9590d16d9017237564736f6c63430007060033",
  "immutableReferences": {},
  "source": "// SPDX-License-Identifier: MIT\r\npragma solidity ^0.7.3;\r\n\r\nimport '@openzeppelin/contracts/token/ERC721/IERC721.sol';\r\nimport '@openzeppelin/contracts/token/ERC20/IERC20.sol';\r\nimport '@openzeppelin/contracts/token/ERC20/ERC20.sol';\r\n\r\ncontract RFT is ERC20 {\r\n  //+-I.C.O. & Shares:_\r\n  uint256 public icoSharePrice;\r\n  uint256 public icoShareSupply;\r\n  uint256 public icoEnd;\r\n\r\n  //NFT & DAI\r\n  uint256 public nftId;\r\n  IERC721 public nft;\r\n  IERC20 public dai;\r\n\r\n  //other\r\n  address public admin;\r\n\r\n  constructor(\r\n    string memory _name,\r\n    string memory _symbol,\r\n    address _nftAddress, \r\n    uint256 _nftId,\r\n    uint256 _icoSharePrice,\r\n    uint256 _icoShareSupply,\r\n    address _daiAddress\r\n  ) \r\n  ERC20(_name, _symbol) \r\n  {\r\n    nftId = _nftId;\r\n    //+-Pointer to our N.F.T.:_\r\n    nft = IERC721(_nftAddress);\r\n    icoSharePrice = _icoSharePrice; \r\n    icoShareSupply = _icoShareSupply;\r\n    dai = IERC20(_daiAddress);\r\n    admin = msg.sender;\r\n  }\r\n\r\n  /**+-We Transfer the N.F.T. from the Admin's Wallet to this Smart Contract,\r\n  we Divide it in Shares and We sell it in an I.C.O/Normal Auction:_*/\r\n  function startIco() external {\r\n    require(msg.sender == admin, 'Only Admin can do this.');\r\n    nft.transferFrom(msg.sender, address(this), nftId);\r\n    //+-By Default, the Auction lates 7 Days:_\r\n    icoEnd = block.timestamp + 7 days;\r\n  }\r\n\r\n  //+-Function for the Users to Buy Shares of the N.F.T. at the I.C.O/Normal Auction:_\r\n  function buyShare(uint256 shareAmount) external {\r\n    require(icoEnd > 0, 'I.C.O. not started yet.');\r\n    require(block.timestamp <= icoEnd, 'I.C.O. is Finished.');\r\n    require(totalSupply() + shareAmount <= icoShareSupply, 'Not Enough Shares left.');\r\n    uint256 daiAmount = shareAmount * icoSharePrice;\r\n    dai.transferFrom(msg.sender, address(this), daiAmount);\r\n    _mint(msg.sender, shareAmount);\r\n  }\r\n\r\n  /**+-Function for the Admin to Withdraw the Profits in DAI after the I.C.O/Normal Auction finished\r\n  and the Shares of the N.F.T. that have not been Sold at the I.C.O/Normal Auction:_*/\r\n  function withdrawIcoProfits() external {\r\n    require(msg.sender == admin, 'Only Admin can do this.');\r\n    require(block.timestamp > icoEnd, 'I.C.O. Not Finished yet.');\r\n    uint256 daiBalance = dai.balanceOf(address(this));\r\n    if(daiBalance > 0) {\r\n      dai.transfer(admin, daiBalance);\r\n    }\r\n    uint256 unsoldShareBalance = icoShareSupply - totalSupply();\r\n    if(unsoldShareBalance > 0) {\r\n      _mint(admin, unsoldShareBalance);\r\n    }\r\n  }\r\n}\r\n",
  "sourcePath": "D:/Personal_Programming_Projects/Re-Fungible-Collectable-Token/contracts/RFT.sol",
  "compiler": {
    "name": "solc",
    "version": "0.7.6+commit.7338295f.Emscripten.clang"
  },
  "schemaVersion": "3.4.1",
  "updatedAt": "2021-08-25T21:29:06.559Z",
  "devdoc": {
    "kind": "dev",
    "methods": {
      "allowance(address,address)": {
        "details": "See {IERC20-allowance}."
      },
      "approve(address,uint256)": {
        "details": "See {IERC20-approve}. Requirements: - `spender` cannot be the zero address."
      },
      "balanceOf(address)": {
        "details": "See {IERC20-balanceOf}."
      },
      "decimals()": {
        "details": "Returns the number of decimals used to get its user representation. For example, if `decimals` equals `2`, a balance of `505` tokens should be displayed to a user as `5,05` (`505 / 10 ** 2`). Tokens usually opt for a value of 18, imitating the relationship between Ether and Wei. This is the value {ERC20} uses, unless {_setupDecimals} is called. NOTE: This information is only used for _display_ purposes: it in no way affects any of the arithmetic of the contract, including {IERC20-balanceOf} and {IERC20-transfer}."
      },
      "decreaseAllowance(address,uint256)": {
        "details": "Atomically decreases the allowance granted to `spender` by the caller. This is an alternative to {approve} that can be used as a mitigation for problems described in {IERC20-approve}. Emits an {Approval} event indicating the updated allowance. Requirements: - `spender` cannot be the zero address. - `spender` must have allowance for the caller of at least `subtractedValue`."
      },
      "increaseAllowance(address,uint256)": {
        "details": "Atomically increases the allowance granted to `spender` by the caller. This is an alternative to {approve} that can be used as a mitigation for problems described in {IERC20-approve}. Emits an {Approval} event indicating the updated allowance. Requirements: - `spender` cannot be the zero address."
      },
      "name()": {
        "details": "Returns the name of the token."
      },
      "symbol()": {
        "details": "Returns the symbol of the token, usually a shorter version of the name."
      },
      "totalSupply()": {
        "details": "See {IERC20-totalSupply}."
      },
      "transfer(address,uint256)": {
        "details": "See {IERC20-transfer}. Requirements: - `recipient` cannot be the zero address. - the caller must have a balance of at least `amount`."
      },
      "transferFrom(address,address,uint256)": {
        "details": "See {IERC20-transferFrom}. Emits an {Approval} event indicating the updated allowance. This is not required by the EIP. See the note at the beginning of {ERC20}. Requirements: - `sender` and `recipient` cannot be the zero address. - `sender` must have a balance of at least `amount`. - the caller must have allowance for ``sender``'s tokens of at least `amount`."
      }
    },
    "version": 1
  },
  "userdoc": {
    "kind": "user",
    "methods": {
      "startIco()": {
        "notice": "+-We Transfer the N.F.T. from the Admin's Wallet to this Smart Contract, we Divide it in Shares and We sell it in an I.C.O/Normal Auction:_"
      },
      "withdrawIcoProfits()": {
        "notice": "+-Function for the Admin to Withdraw the Profits in DAI after the I.C.O/Normal Auction finished and the Shares of the N.F.T. that have not been Sold at the I.C.O/Normal Auction:_"
      }
    },
    "version": 1
  }
}